:020000040000FA
:060000004CEF0EF00000C1
:080008003BEF0FF064EC0FF078
:100010009FEC0FF000016C6B00016D6BC00E0001D6
:100020006E6F3F0E00016F6F11EC0FF0006EF3CF9B
:1000300001F00150E56E0050E56ED7EC0EF0006E59
:10004000F3CF01F0F4CF02F0E9CF03F0E652E6522D
:100050000350E56E0250E56E0150E56E0050E56E0E
:10006000400EE56EA00EE56E000EE56E000EE56E2C
:1000700019EC04F0006EF3CF01F0F4CF02F0E9CFF9
:1000800003F0080EE126440EE56E800EE56E000ECC
:10009000E56E000EE56E0350E56E0250E56E015010
:1000A000E56E0050E56EE3EC05F00001706FF3CFF4
:1000B00071F0F4CF72F0E9CF73F0080EE126000181
:1000C000BC6B0001BD6B010E0001BE6F0001BF6B78
:1000D00000016F51E56E00016E51E56E00016D513A
:1000E000E56E00016C51E56E00017351E56E000193
:1000F0007251E56E00017151E56E00017051E56EBF
:100100006EEC0BF0006E080EE126005011E10001CC
:10011000BE6B0001BF6B70C06CF071C06DF072C03F
:100120006EF073C06FF0010E0001BC6F0001BD6B7B
:100130003F0EE56E000EE56E000EE56E000EE56EFC
:1001400000016F51E56E00016E51E56E00016D51C9
:10015000E56E00016C51E56E42EC02F0006EF3CFEB
:1001600001F0F4CF02F0E9CF03F0080EE1260350CE
:10017000E56E0250E56E0150E56E0050E56E00013F
:100180007351E56E00017251E56E00017151E56E2B
:1001900000017051E56E6EEC0BF0006E080EE1266A
:1001A000005010E10001BC51010A03E10001BD5102
:1001B00001E008D070C06CF071C06DF072C06EF0DC
:1001C00073C06FF03F0EE56E000EE56E000EE56E3B
:1001D000000EE56E00016F51E56E00016E51E56E97
:1001E00000016D51E56E00016C51E56E34EC0AF0D2
:1001F000006EF3CF01F0F4CF02F0E9CF03F0080E68
:10020000E1260350E56E0250E56E0150E56E0050A8
:10021000E56E00017351E56E00017251E56E00015B
:100220007151E56E00017051E56EDEEC0AF0006E72
:10023000080EE126005019E10001BC51010A03E15A
:100240000001BD5101E011D00001BC6B0001BD6B8C
:1002500070C06CF071C06DF072C06EF073C06FF062
:10026000010E0001BE6F0001BF6B00016F51E56E12
:1002700000016E51E56E00016D51E56E00016C519B
:10028000E56E00017351E56E00017251E56E0001EB
:100290007151E56E00017051E56E6EEC0BF0006E71
:1002A000080EE126005009E0E86A0001BC51010A8D
:1002B00004E10001BD5101E1E82A3F0EE56E000EA8
:1002C000E56E000EE56E000EE56E00016F51E56E05
:1002D00000016E51E56E00016D51E56E00016C513B
:1002E000E56E34EC0AF0006EF3CF01F0F4CF02F0CB
:1002F000E9CF03F0080EE1260350E56E0250E56EEB
:100300000150E56E0050E56E00017351E56E00018D
:100310007251E56E00017151E56E00017051E56E9C
:10032000DEEC0AF0006E080EE126005010E100013C
:10033000BE51010A03E10001BF5101E008D070C0C5
:100340006CF071C06DF072C06EF073C06FF03F0E54
:10035000E56E000EE56E000EE56E000EE56E000126
:100360006F51E56E00016E51E56E00016D51E56E55
:1003700000016C51E56E42EC02F0006EF3CF01F02B
:10038000F4CF02F0E9CF03F0080EE1260350E56E4A
:100390000250E56E0150E56E0050E56E00017351AC
:1003A000E56E00017251E56E00017151E56E0001CC
:1003B0007051E56E6EEC0BF0006E080EE1260050F9
:1003C00019E10001BE51010A03E10001BF5101E042
:1003D00011D00001BE6B0001BF6B70C06CF071C02A
:1003E0006DF072C06EF073C06FF0010E0001BC6F53
:1003F0000001BD6B00016F51E56E00016E51E56EAD
:1004000000016D51E56E00016C51E56E0001735104
:10041000E56E00017251E56E00017151E56E00015B
:100420007051E56EDEEC0AF0006E080EE126005019
:1004300009E0E86A0001BE51010A04E10001BF5170
:1004400001E1E82A0001BC51010A03E10001BD51AC
:1004500001E006D08150006EEF0E0014816E818A9B
:100460000001BE51010A03E10001BF5102E014EF97
:1004700000F08150006EDF0E0014816E818814EF51
:1004800000F01200D9CFE5FFE1CFD9FF00C0E5FFB2
:1004900001C0E5FF02C0E5FF03C0E5FF04C0E5FFC2
:1004A00005C0E5FF06C0E5FF07C0E5FF08C0E5FFA2
:1004B00009C0E5FF0AC0E5FF0BC0E5FF0CC0E5FF82
:1004C0000DC0E5FF0EC0E5FF0FC0E5FF10C0E5FF62
:1004D000020EDBCF00F0030EDBCF01F0040EDBCF0A
:1004E00002F0050EDBCF03F0060EDBCF04F0070EA3
:1004F000DBCF05F0080EDBCF06F0090EDBCF07F0EF
:10050000086A096A0A6A0B6A005000017C6F015090
:100510007D6F02507E6F03507F6F04500001806F2B
:100520000550816F0650826F0750836F00017C5128
:100530007D117E117F1109E183C0E9FF82C0F4FFC4
:1005400081C0F3FF000180514FD100018051811122
:100550008211831109E17FC0E9FF7EC0F4FF7DC0F5
:10056000F3FF00017C5140D100017E357F35006EE4
:10057000016A0136026A036A016A026A036A0001BB
:1005800082358335026E190F046E000E0320800F32
:10059000F36E0150800FF35C02E10050045C09E24D
:1005A0007FC0E9FF7EC0F4FF7DC0F3FF00017C51F6
:1005B0001BD10050190F046E000E0120800FF36E46
:1005C0000350800FF35C02E10250045C09E283C037
:1005D000E9FF82C0F4FF81C0F3FF0001805104D124
:1005E00000017C51046E7D51056E7F0E7E15066EF6
:1005F000076A068E000180510C6E81510D6E7F0ED0
:1006000082150E6E0F6A0E8E00017F51800BE8443A
:10061000106E10500AE0071E061E051E046C05E150
:10062000052A03E1062AD8B4072A00018351800B6A
:10063000E844106E10500AE00F1E0E1E0D1E0C6CCA
:1006400005E10D2A03E10E2AD8B40F2A0350800FCA
:10065000F36E0150800FF35C02E10050025C1BE27C
:100660000250005C106E03500158105032E00BE64F
:10067000E86CD8900FBED8800F320E320D320C329B
:10068000010FF8E326D0D8900C360D360E360F3613
:10069000010FFAE31ED00050025C106E01500358A7
:1006A000105013E00BE6E86CD89007BED8800732F4
:1006B000063205320432010FF8E307D0D890043631
:1006C000053606360736010FFAE302C000F003C014
:1006D00001F00C5004260D5005220E5006220F503A
:1006E0000722D88007AED89010E3071E061E051E0D
:1006F000046C05E1052A03E1062AD8B4072A086A32
:10070000096A0A6A800E0B6E0AD0045005100610A2
:10071000071005E1E96AF46AF36AE86A65D00450F3
:10072000026E0550036E06500C6E07500D6E000EE3
:100730000D5C08E1800E0C5C05E1000E035C02E13B
:10074000000E025C09E20450042605360636073620
:10075000FF0E00260122E3D70450026E0550036EFF
:1007600006500C6E07500D6E10E004A006D0020E6D
:100770000426000E0522062207220734073206321D
:1007800005320432004A012AE7D70250046E0350B2
:10079000056E7F0E0C14066E0D50076EE86A013070
:1007A00000300F6E0E6A0E320C6A0C5008120912DD
:1007B0000E500A120F500B12045008120550091265
:1007C00006500A1207500B12085000017C6F0950A6
:1007D0007D6F0A507E6F0B507F6F7FC0E9FF7EC038
:1007E000F4FF7DC0F3FF7C51E4CF10F0E4CF0FF0B5
:1007F000E4CF0EF0E4CF0DF0E4CF0CF0E4CF0BF03B
:10080000E4CF0AF0E4CF09F0E4CF08F0E4CF07F03A
:10081000E4CF06F0E4CF05F0E4CF04F0E4CF03F03A
:10082000E4CF02F0E4CF01F0E4CF00F0E4CFD9FF51
:100830001200D9CFE5FFE1CFD9FF00C0E5FF01C02D
:10084000E5FF02C0E5FF03C0E5FF04C0E5FF05C00A
:10085000E5FF06C0E5FF07C0E5FF08C0E5FF09C0EA
:10086000E5FF0AC0E5FF0BC0E5FF0CC0E5FF0EC0C9
:10087000E5FF0FC0E5FF020EDBCF00F0030EDBCF7C
:1008800001F0040EDBCF02F0050EDBCF03F0060E05
:10089000DBCF04F0070EDBCF05F0080EDBCF06F050
:1008A000090EDBCF07F000500001846F0150856F07
:1008B0000250866F0350876F04500001886F055007
:1008C000896F06508A6F07508B6F00018451851124
:1008D0008611871106E00001885189118A118B1158
:1008E00005E1E96AF46AF36AE86A4CD100018751CC
:1008F000800BE844006E00018B51800BE844001A25
:10090000000186358735016E036A046A026A820E29
:100910000126FF0E02220322042200018A358B35B4
:10092000036E046A01C007F002C008F007500326F6
:10093000085004220350016E0450026E00018451DD
:10094000036E8551046E7F0E8615056E058E03506D
:10095000846F0450856F0550866F876B0001885146
:10096000036E8951046E7F0E8A15056E058E035045
:10097000886F0450896F05508A6F8B6B0001855119
:10098000036E8651046E8751056E00018951076E12
:100990008A51086E8B51E56AE56E0850E56E075086
:1009A000E56EE56A0550E56E0450E56E0350E56EB0
:1009B000A0EC07F0036EF3CF04F0F4CF05F0E9CF1D
:1009C00006F0080EE12600018451076E00018951EE
:1009D0000B6E8A510C6E8B51E56AE56E0C50E56E1C
:1009E0000B50E56EE56AE56AE56A0750E56EA0EC36
:1009F00007F0F3CF08F0F4CF09F0E9CF0AF0080EC2
:100A0000E1260850076E0950086E0A50096E0A6AFE
:100A10000750032608500422095005220A500622D6
:100A200000018851076E000185510B6E86510C6ED6
:100A30008751E56AE56E0C50E56E0B50E56EE56A90
:100A4000E56AE56A0750E56EA0EC07F0F3CF08F021
:100A5000F4CF09F0E9CF0AF0080EE1260850076E3E
:100A60000950086E0A50096E0A6A0750032608509A
:100A70000422095005220A500622400E0326000EC9
:100A800004220522062206AE0ED0400E0326000EDA
:100A90000422052206220450036E0550046E0650FF
:100AA000056E066A11D003340434036E046A0436FA
:100AB0000550E844FE0B041205340634056E066A40
:100AC0000636FF0E01260222059E0250800F7F0F80
:100AD00002E1000E015C19E3005006E0076A086AB3
:100AE000096A800E0A6E04D0076A086A096A0A6AEF
:100AF000098E7F0E0A1207500001846F0850856F1F
:100B00000950866F0A50876F35D0D88002AED890D2
:100B100006E30001846B856B866B876B2BD00050DE
:100B200006E0006A076A086A800E096E04D0006A4F
:100B3000076A086A096AE86A023001300F6E0E6AB5
:100B40000E320C6A0C50001207120E5008120F5091
:100B500009120050031207500412085005120950E0
:100B6000061203500001846F0450856F0550866F94
:100B70000650876F87C0E9FF86C0F4FF85C0F3FF8A
:100B800000018451E4CF0FF0E4CF0EF0E4CF0CF07D
:100B9000E4CF0BF0E4CF0AF0E4CF09F0E4CF08F0A3
:100BA000E4CF07F0E4CF06F0E4CF05F0E4CF04F0A3
:100BB000E4CF03F0E4CF02F0E4CF01F0E4CF00F0A3
:100BC000E4CFD9FF1200D9CFE5FFE1CFD9FF00C0B4
:100BD000E5FF01C0E5FF02C0E5FF03C0E5FF04C07B
:100BE000E5FF05C0E5FF06C0E5FF07C0E5FF08C05B
:100BF000E5FF09C0E5FF0AC0E5FF0BC0E5FF0CC03B
:100C0000E5FF0DC0E5FF0EC0E5FF0FC0E5FF10C01A
:100C1000E5FF11C0E5FF12C0E5FF13C0E5FF14C0FA
:100C2000E5FF15C0E5FF16C0E5FF020EDBCF00F0C3
:100C3000030EDBCF01F0040EDBCF02F0050EDBCF9D
:100C400003F0060EDBCF04F0070EDBCF05F0080E35
:100C5000DBCF06F0090EDBCF07F0005000018C6FF0
:100C600001508D6F02508E6F03508F6F0450000142
:100C7000906F0550916F0650926F0750936F00016F
:100C80008E51026E8F51036E02340334006E016A7E
:100C90000136026A036A016A026A036A000192511C
:100CA000046E9351056E0434053400C006F0076AE3
:100CB000065C026E03500758036E0250006E03502C
:100CC000016E7E0E0026D8B0012A00018F51800BE4
:100CD000E844026E00019351800BE844021A9051DF
:100CE0009111921193110EE1906B916BC00E926F66
:100CF0007F0E936F93C0E9FF92C0F4FF91C0F3FFA2
:100D00009051EDD000018C518D118E118F1105E1A4
:100D1000E96AF46AF36AE86AE2D000018C51036E72
:100D20008D51046E8E51056E8F51059E066A058E9B
:100D300000019051076E9151086E9251096E9351C6
:100D4000099E0A6A098E0650800FF36E0A50800FC2
:100D5000F35C08E10950055C05E10850045C02E120
:100D60000750035C08E203500326043605360636B6
:100D7000FF0E002601220B6A0C6A0D6A010E0E6E30
:100D80000F6A106A116A126A0B500C100D100E10C7
:100D900037E00650800FF36E0A50800FF35C08E1D5
:100DA0000950055C05E10850045C02E10750035C52
:100DB0001CE30F50136E1050146E1150156E12502C
:100DC000166E0B5013100F6E0C501410106E0D5049
:100DD0001510116E0E501610126E0750035E08505B
:100DE000045A0950055A0A50065A0350032604367D
:100DF00005360636D8900E320D320C320B32C4D77F
:100E00000F2A04E3102A02E3114A122A004A012A97
:100E100012341232113210320F321150056E7F0E21
:100E20000514116E0150800F7F0F02E1000E005C6F
:100E300019E3025006E0036A046A056A800E066E32
:100E400004D0036A046A056A066A058E7F0E0612DC
:100E5000035000018C6F04508D6F05508E6F06504B
:100E60008F6F35D0D88001AED89006E300018C6B2F
:100E70008D6B8E6B8F6B2BD0025006E0026A036A7B
:100E8000046A800E056E04D0026A036A046A056A69
:100E9000E86A013000300B6E0A6A0A32086A0850AC
:100EA000021203120A5004120B5005120F500212C4
:100EB000105003121150041212500512025000017A
:100EC0008C6F03508D6F04508E6F05508F6F8FC0E5
:100ED000E9FF8EC0F4FF8DC0F3FF00018C51E4CF19
:100EE00016F0E4CF15F0E4CF14F0E4CF13F0E4CF24
:100EF00012F0E4CF11F0E4CF10F0E4CF0FF0E4CF24
:100F00000EF0E4CF0DF0E4CF0CF0E4CF0BF0E4CF23
:100F10000AF0E4CF09F0E4CF08F0E4CF07F0E4CF23
:100F200006F0E4CF05F0E4CF04F0E4CF03F0E4CF23
:100F300002F0E4CF01F0E4CF00F0E4CFD9FF1200DB
:100F4000D9CFE5FFE1CFD9FF00C0E5FF01C0E5FF44
:100F500002C0E5FF03C0E5FF04C0E5FF05C0E5FFF3
:100F600006C0E5FF07C0E5FF020EDBCF00F0030E71
:100F7000DBCF01F0040EDBCF02F0050EDBCF03F078
:100F8000060EDBCF04F0070EDBCF05F0080EDBCF3B
:100F900006F0090EDBCF07F0005000019C6F0150F6
:100FA0009D6F02509E6F03509F6F04500001A06F11
:100FB0000550A16F0650A26F0750A36F00019C510E
:100FC0000001A203F4CF01F0F3CF00F000500001C4
:100FD000A66F0150A76F00019C510001A003F4CF40
:100FE00001F0F3CF00F000500001A46F0150A56F95
:100FF00000019F510001A003F3CF00F00001A751B1
:1010000000260050A76F00019E510001A103F3CFFD
:1010100000F00001A75100260050A76F00019E516B
:101020000001A003F4CF01F0F3CF00F00001A651BE
:101030000026A75101220050A66F0150A76F0001A2
:101040009D510001A103F4CF01F0F3CF00F00001A6
:10105000A6510026A75101220050A66F0150A76F8C
:1010600000019D510001A203F3CF00F000500001E8
:10107000AB6F00019D510001A003F4CF01F0F3CF4D
:1010800000F000500001A96F0150AA6F00019C51AF
:101090000001A303F3CF00F000500001AF6F000187
:1010A0009C510001A103F4CF01F0F3CF00F00050F8
:1010B0000001AD6F0150AE6F0001A86B0001AC6B79
:1010C0000001A8510001A425006E0001A9510001F2
:1010D000A521016E0001AA510001A621026E0001A6
:1010E000AB510001A721036E0050A46F0150A56F02
:1010F0000250A66F0350A76F0001AC510001A42558
:10110000006E0001AD510001A521016E0001AE513C
:101110000001A621026E0001AF510001A721036E5C
:1011200003C0E9FF02C0F4FF01C0F3FF0050E4CFA9
:1011300007F0E4CF06F0E4CF05F0E4CF04F0E4CF0D
:1011400003F0E4CF02F0E4CF01F0E4CF00F0E4CF0D
:10115000D9FF1200D9CFE5FFE1CFD9FF00C0E5FFED
:1011600001C0E5FF02C0E5FF03C0E5FF04C0E5FFE5
:1011700005C0E5FF06C0E5FF07C0E5FF08C0E5FFC5
:1011800009C0E5FF0AC0E5FF0BC0E5FF0CC0E5FFA5
:101190000DC0E5FF020EDBCF00F0030EDBCF01F048
:1011A000040EDBCF02F0050EDBCF03F0060EDBCF23
:1011B00004F0070EDBCF05F0080EDBCF06F0090EBA
:1011C000DBCF07F0D88003AED890086A0836085005
:1011D0000FE0031C0C6E021C0B6E011C0A6E001C3F
:1011E000096E092A0DE10A2A0BE10B4A0C2A08D0E4
:1011F00000C009F001C00AF002C00BF003C00CF0FF
:10120000D88007AED890006A003600500FE0071C67
:101210000D6E061C036E051C026E041C016E012A75
:101220000DE1022A0BE1034A0D2A08D004C001F0A7
:1012300005C002F006C003F007C00DF00D50E56ECA
:101240000350E56E0250E56E0150E56E0C50E56E00
:101250000B50E56E0A50E56E0950E56EFDEC0BF0A3
:10126000016EF3CF02F0F4CF03F0E9CF04F0080EE3
:10127000E1260050081A085016E0041C076E031CF3
:10128000066E021C056E011C006E002A04E1052A90
:1012900002E1064A072A07C0E9FF06C0F4FF05C0BD
:1012A000F3FF005007D004C0E9FF03C0F4FF02C001
:1012B000F3FF0150E4CF0DF0E4CF0CF0E4CF0BF0DE
:1012C000E4CF0AF0E4CF09F0E4CF08F0E4CF07F070
:1012D000E4CF06F0E4CF05F0E4CF04F0E4CF03F070
:1012E000E4CF02F0E4CF01F0E4CF00F0E4CFD9FF87
:1012F0001200D9CFE5FFE1CFD9FF00C0E5FF01C063
:10130000E5FF02C0E5FF03C0E5FF04C0E5FF05C03F
:10131000E5FF06C0E5FF07C0E5FF08C0E5FF09C01F
:10132000E5FF0AC0E5FF0BC0E5FF020EDBCF00F0D2
:10133000030EDBCF01F0040EDBCF02F0050EDBCF96
:1013400003F0005001100210031005E1E96AF46A8D
:10135000F36AE86A6ED0960E046E056A035008E0E0
:10136000D8900332023201320032044A052AF6D7FD
:1013700004C006F005C007F0000E035C08E1800E13
:10138000025C05E1000E015C02E1000E005C18E267
:1013900000500026013602360336FF0E04260522D1
:1013A000000E035C08E1800E025C05E1000E015CAA
:1013B00002E1000E005CECE304C006F005C007F09B
:1013C0000050046E0150056E7F0E0214086E096A0B
:1013D0000450FF0A08E10550FF0A05E108507F0AA2
:1013E00002E1095001E006D0006A016A026A036A5C
:1013F000064A072A029EE86A073006300B6E0A6A20
:101400000A32086A0850001201120A5002120B50E8
:10141000031200500001B86F0150B96F0250BA6F4B
:101420000350BB6FBBC0E9FFBAC0F4FFB9C0F3FF04
:10143000B851E4CF0BF0E4CF0AF0E4CF09F0E4CFE9
:1014400008F0E4CF07F0E4CF06F0E4CF05F0E4CFF6
:1014500004F0E4CF03F0E4CF02F0E4CF01F0E4CFF6
:1014600000F0E4CFD9FF1200D9CFE5FFE1CFD9FFDB
:1014700000C0E5FF01C0E5FF02C0E5FF03C0E5FFD6
:1014800004C0E5FF05C0E5FF06C0E5FF07C0E5FFB6
:10149000020EDBCF00F0030EDBCF01F0040EDBCF3A
:1014A00002F0050EDBCF03F0060EDBCF04F0070ED3
:1014B000DBCF05F0080EDBCF06F0090EDBCF07F01F
:1014C00000500001946F0150956F0250966F0350C9
:1014D000976F04500001986F0550996F06509A6FEE
:1014E00007509B6F985199119A119B1109E197C070
:1014F000E9FF96C0F4FF95C0F3FF000194514BD073
:101500000001945195119611971111E198C000F0C6
:1015100099C001F09AC002F09BC003F0037E03C0A3
:10152000E9FF02C0F4FF01C0F3FF005034D0000116
:101530009851006E9951016E9A51026E9B51036E43
:10154000037E0050986F0150996F02509A6F0350BC
:101550009B6FE56E9A51E56E9951E56E9851E56E77
:1015600000019751E56E9651E56E9551E56E9451E7
:10157000E56E42EC02F0006EF3CF01F0F4CF02F022
:10158000E9CF03F0080EE12603C0E9FF02C0F4FF33
:1015900001C0F3FF0050E4CF07F0E4CF06F0E4CF42
:1015A00005F0E4CF04F0E4CF03F0E4CF02F0E4CFA1
:1015B00001F0E4CF00F0E4CFD9FF1200D9CFE5FF6E
:1015C000E1CFD9FF00C0E5FF01C0E5FF02C0E5FFA4
:1015D00003C0E5FF04C0E5FF05C0E5FF06C0E5FF69
:1015E00007C0E5FF020EDBCF00F0030EDBCF01F0FA
:1015F000040EDBCF02F0050EDBCF03F0060EDBCFCF
:1016000004F0070EDBCF05F0080EDBCF06F0090E65
:10161000DBCF07F000500001746F0150756F02506E
:10162000766F0350776F04500001786F0550796F23
:1016300006507A6F07507B6FD880000177AFD89043
:1016400020E3D88000017BAFD8901BE300017751E5
:10165000800FF36E00017B51800FF35C0DE17A5136
:101660000001765D09E1000179510001755D04E139
:10167000000178510001745D02E2010E1CD0E86A9D
:101680001AD000017B51800FF36E00017751800F5B
:10169000F35C0DE1765100017A5D09E100017551BD
:1016A0000001795D04E1000174510001785D02E2FE
:1016B000010E01D0E86AE4CF07F0E4CF06F0E4CFF2
:1016C00005F0E4CF04F0E4CF03F0E4CF02F0E4CF80
:1016D00001F0E4CF00F0E4CFD9FF1200D9CFE5FF4D
:1016E000E1CFD9FF00C0E5FF01C0E5FF02C0E5FF83
:1016F00003C0E5FF04C0E5FF05C0E5FF06C0E5FF48
:1017000007C0E5FF020EDBCF00F0030EDBCF01F0D8
:10171000040EDBCF02F0050EDBCF03F0060EDBCFAD
:1017200004F0070EDBCF05F0080EDBCF06F0090E44
:10173000DBCF07F000500001B06F0150B16F0250D5
:10174000B26F0350B36F04500001B46F0550B56F12
:101750000650B66F0750B76FD8800001B3AFD8906E
:101760001FE3D8800001B7AFD8901AE3B751800FBC
:10177000F36E0001B351800FF35C0DE1B251000133
:10178000B65D09E10001B1510001B55D04E1000160
:10179000B0510001B45D02E2010E1CD0E86A1AD01B
:1017A0000001B351800FF36E0001B751800FF35C5D
:1017B0000DE1B6510001B25D09E10001B551000132
:1017C000B15D04E10001B4510001B05D02E2010E1F
:1017D00001D0E86AE4CF07F0E4CF06F0E4CF05F0EB
:1017E000E4CF04F0E4CF03F0E4CF02F0E4CF01F063
:1017F000E4CF00F0E4CFD9FF1200D9CFE5FFE1CF6D
:10180000D9FF00C0E5FF01C0E5FF02C0E5FF03C04E
:10181000E5FF04C0E5FF05C0E5FF06C0E5FF07C022
:10182000E5FF08C0E5FF09C0E5FF0AC0E5FF0BC002
:10183000E5FF0CC0E5FF0DC0E5FF020EDBCF00F0B9
:10184000030EDBCF01F0040EDBCF02F0050EDBCF81
:1018500003F0060EDBCF04F0070EDBCF05F0080E19
:10186000DBCF06F0090EDBCF07F0086A096A0A6AC7
:101870000B6A200E0C6E0350800BE8440D6E005076
:1018800000260136023603360850082609360A3685
:101890000B360D50D8A4088007500B5C08E10650A9
:1018A0000A5C05E10550095C02E10450085C09E3AB
:1018B0000450085E0550095A06500A5A07500B5A40
:1018C00000800C2ED8D703C0E9FF02C0F4FF01C08E
:1018D000F3FF0050E4CF0DF0E4CF0CF0E4CF0BF0B9
:1018E000E4CF0AF0E4CF09F0E4CF08F0E4CF07F04A
:1018F000E4CF06F0E4CF05F0E4CF04F0E4CF03F04A
:10190000E4CF02F0E4CF01F0E4CF00F0E4CFD9FF60
:101910001200D9CFE5FFE1CFD9FF00C0E5FF01C03C
:10192000E5FF02C0E5FF03C0E5FF04C0E5FF05C019
:10193000E5FF06C0E5FF07C0E5FF020EDBCF00F0C4
:10194000030EDBCF01F0040EDBCF02F0050EDBCF80
:1019500003F0D88003AED8902AE3031C076E021C64
:10196000066E011C056E001C046E042A04E1052AA3
:1019700002E1064A072A0750E56E0650E56E05505B
:10198000E56E0450E56E79EC09F0046EF3CF05F0D6
:10199000F4CF06F0E9CF07F0040EE126077E07C07A
:1019A000E9FF06C0F4FF05C0F3FF04501AD003504E
:1019B000E56E0250E56E0150E56E0050E56E79EC83
:1019C00009F0006EF3CF01F0F4CF02F0E9CF03F09D
:1019D000040EE12603C0E9FF02C0F4FF01C0F3FFDB
:1019E0000050E4CF07F0E4CF06F0E4CF05F0E4CFF9
:1019F00004F0E4CF03F0E4CF02F0E4CF01F0E4CF51
:101A000000F0E4CFD9FF1200D9CFE5FFE1CFD9FF35
:101A100000C0E5FF01C0E5FF02C0E5FF03C0E5FF30
:101A200004C0E5FF05C0E5FF06C0E5FF07C0E5FF10
:101A3000020EDBCF00F0030EDBCF01F0040EDBCF94
:101A400002F0050EDBCF03F0046A056A100E066E85
:101A50000150800BE844076E005000260136045008
:101A6000042605360750D8A404800350055C02E123
:101A70000250045C05E30250045E0350055A0080E6
:101A8000062EE6D701C0F3FF0050E4CF07F0E4CF05
:101A900006F0E4CF05F0E4CF04F0E4CF03F0E4CFA8
:101AA00002F0E4CF01F0E4CF00F0E4CFD9FF120060
:101AB000D9CFE5FFE1CFD9FF00C0E5FF01C0E5FFC9
:101AC00002C0E5FF03C0E5FF020EDBCF00F0016AB4
:101AD000CBCF02F0036A024A032A0350E56E02509C
:101AE000E56E0150E56E0050E56EFCEC0DF0006E09
:101AF000F3CF01F0040EE126000EE56E190EE56E3F
:101B00000150E56E0050E56E04EC0DF0006EF3CF71
:101B100001F0040EE126030E0116D8900130036E89
:101B20000030026ED890033202320250BB6E030EB8
:101B30000016016A0038F00B016E0150BA12E4CFB2
:101B400003F0E4CF02F0E4CF01F0E4CF00F0E4CF03
:101B5000D9FF1200D9CFE5FFE1CFD9FF00C0E5FFE3
:101B600001C0E5FF02C0E5FF03C0E5FF020EDBCFC9
:101B700000F0016ACBCF02F0036A024A032A035045
:101B8000E56E0250E56E0150E56E0050E56EFCEC2E
:101B90000DF0006EF3CF01F0040EE126000EE56EAD
:101BA000190EE56E0150E56E0050E56E04EC0DF087
:101BB000006EF3CF01F0040EE126030E0116D8905B
:101BC0000130036E0030026ED890033202320250B0
:101BD000BE6E030E0016016A0038F00B016E015054
:101BE000BD12E4CF03F0E4CF02F0E4CF01F0E4CF84
:101BF00000F0E4CFD9FF1200D9CFE5FFE1CFD9FF44
:101C000000C0E5FF01C0E5FF02C0E5FF03C0E5FF3E
:101C1000020EDBCF00F0030EDBCF01F0040EDBCFB2
:101C200002F0050EDBCF03F000500001C06F015041
:101C3000C16F02500001C26F0350C36F0001C05159
:101C40000001C203F4CF01F0F3CF00F00050000117
:101C5000C46F0150C56F0001C0510001C303F3CF31
:101C600000F00001C1510001C203F3CF01F00150A7
:101C700000260001C55100260050C56FC5C0F3FF06
:101C8000C451E4CF03F0E4CF02F0E4CF01F0E4CF9D
:101C900000F0E4CFD9FF120017EEFFF027EEFFF0BF
:101CA000F86AA68EA69C5A0EF66E1F0EF76E000EF0
:101CB000F86E0900F5CF05F00900F5CF06F034D035
:101CC0000900F5CF00F00900F5CF01F00900F5CFCC
:101CD00002F009000900F5CFE9FF0900F5CFEAFF9E
:101CE000090009000900F5CF03F00900F5CF04F061
:101CF00009000900F6CF07F0F7CF08F0F8CF09F098
:101D000000C0F6FF01C0F7FF02C0F8FF03D00900D2
:101D1000F5CFEEFF0306FBE20406F9E207C0F6FF8B
:101D200008C0F7FF09C0F8FF0506CAE20606C8E2C8
:101D300006EC00F0FFD7D9CFE5FFE1CFD9FF00C017
:101D4000E5FF01C0E5FF02C0E5FF03C0E5FF020EAD
:101D5000DBCF00F0030EDBCF01F0026A036A035011
:101D6000E56E0250E56E0150E56E0050E56E000E26
:101D7000E56E010EE56EE80EE56E480EE56EAAEC26
:101D800008F0006EF3CF01F0F4CF02F0E9CF03F0DA
:101D9000080EE1260004CB6EE4CF03F0E4CF02F09E
:101DA000E4CF01F0E4CF00F0E4CFD9FF1200D9CFA7
:101DB000E5FFE1CFD9FF00C0E5FF01C0E5FF02C0AC
:101DC000E5FF03C0E5FF020EDBCF00F0030EDBCF23
:101DD00001F0E86A01BEFF0E026EE56E0250E56E8C
:101DE0000150E56E0050E56E89EC0CF0006EF3CF0B
:101DF00001F0F4CF02F0E9CF03F0040EE12603C0B6
:101E0000E9FF02C0F4FF01C0F3FF0050E4CF03F08C
:101E1000E4CF02F0E4CF01F0E4CF00F0E4CFD9FF4B
:101E20001200D9CFE5FFE1CFD9FF00C0E5FF01C027
:101E3000E5FF02C0E5FF03C0E5FFC282C2B2FED7E4
:101E4000C4CF00F0016A0050016E006AC3CF02F0F7
:101E5000036A025000260350012201C0F3FF005024
:101E6000E4CF03F0E4CF02F0E4CF01F0E4CF00F0E0
:101E7000E4CFD9FF1200D8CFE5FFE0CFE5FFE56E54
:101E8000F3CFE5FFF4CFE5FFE9CFE5FFEACFE5FFCC
:101E9000FACFE5FFFBCFE5FFD9CFE5FFE1CFD9FFD3
:101EA000E4CFD9FFE4CFFBFFE4CFFAFFE4CFEAFFB2
:101EB000E4CFE9FFE4CFF4FFE4CFF3FFE450E4CF55
:101EC000E0FFE4CFD8FF1000D9CFE5FFE1CFD9FF85
:101ED000D06AF26AF16AF06A9E6AA16A9D6AA06A93
:101EE0009F6AA26A800E9B6E760ED36E926A936A88
:101EF000946A956A966A806A816A826A836A846A49
:101F0000E4CFD9FF1200D9CFE5FFE1CFD9FF00C060
:101F1000E5FF9450006EFD0E0014946E9450006E18
:101F2000FB0E0014946E030ECA12CA840C0EBD126E
:101F30000C0EBA12E4CF00F0E4CFD9FF1200D9CFD3
:101F4000E5FFE1CFD9FF9280010EC26E0E0EC16E89
:101F5000AA0EC06EE4CFD9FF1200010004000000F9
:081F6000C600000001000000B2
:020000040030CA
:0100010008F6
:010003001EDE
:020005008181F7
:00000001FF
